{
  "_format": "hh-sol-artifact-1",
  "contractName": "StakingReverter",
  "sourceName": "solidity/precompiles/testutil/contracts/StakingReverter.sol",
  "abi": [
    {
      "inputs": [],
      "stateMutability": "payable",
      "type": "constructor"
    },
    {
      "inputs": [
        {
          "internalType": "uint256",
          "name": "numTimes",
          "type": "uint256"
        },
        {
          "internalType": "string",
          "name": "validatorAddress",
          "type": "string"
        }
      ],
      "name": "callPrecompileAfterRevert",
      "outputs": [],
      "stateMutability": "nonpayable",
      "type": "function"
    },
    {
      "inputs": [
        {
          "internalType": "uint256",
          "name": "numTimes",
          "type": "uint256"
        },
        {
          "internalType": "string",
          "name": "validatorAddress",
          "type": "string"
        }
      ],
      "name": "callPrecompileAfterRevert2",
      "outputs": [],
      "stateMutability": "nonpayable",
      "type": "function"
    },
    {
      "inputs": [
        {
          "internalType": "string",
          "name": "validatorAddress",
          "type": "string"
        }
      ],
      "name": "getCurrentStake",
      "outputs": [
        {
          "internalType": "uint256",
          "name": "shares",
          "type": "uint256"
        },
        {
          "components": [
            {
              "internalType": "string",
              "name": "denom",
              "type": "string"
            },
            {
              "internalType": "uint256",
              "name": "amount",
              "type": "uint256"
            }
          ],
          "internalType": "struct Coin",
          "name": "balance",
          "type": "tuple"
        }
      ],
      "stateMutability": "view",
      "type": "function"
    },
    {
      "inputs": [
        {
          "internalType": "uint256",
          "name": "numTimes",
          "type": "uint256"
        },
        {
          "internalType": "string",
          "name": "validatorAddress",
          "type": "string"
        }
      ],
      "name": "multipleDelegations",
      "outputs": [],
      "stateMutability": "nonpayable",
      "type": "function"
    },
    {
      "inputs": [
        {
          "internalType": "uint256",
          "name": "numTimes",
          "type": "uint256"
        },
        {
          "internalType": "address",
          "name": "validatorAddress",
          "type": "address"
        }
      ],
      "name": "multipleQueries",
      "outputs": [
        {
          "components": [
            {
              "internalType": "string",
              "name": "operatorAddress",
              "type": "string"
            },
            {
              "internalType": "string",
              "name": "consensusPubkey",
              "type": "string"
            },
            {
              "internalType": "bool",
              "name": "jailed",
              "type": "bool"
            },
            {
              "internalType": "enum BondStatus",
              "name": "status",
              "type": "uint8"
            },
            {
              "internalType": "uint256",
              "name": "tokens",
              "type": "uint256"
            },
            {
              "internalType": "uint256",
              "name": "delegatorShares",
              "type": "uint256"
            },
            {
              "internalType": "string",
              "name": "description",
              "type": "string"
            },
            {
              "internalType": "int64",
              "name": "unbondingHeight",
              "type": "int64"
            },
            {
              "internalType": "int64",
              "name": "unbondingTime",
              "type": "int64"
            },
            {
              "internalType": "uint256",
              "name": "commission",
              "type": "uint256"
            },
            {
              "internalType": "uint256",
              "name": "minSelfDelegation",
              "type": "uint256"
            }
          ],
          "internalType": "struct Validator",
          "name": "validator",
          "type": "tuple"
        }
      ],
      "stateMutability": "view",
      "type": "function"
    },
    {
      "inputs": [
        {
          "internalType": "string",
          "name": "validatorAddress",
          "type": "string"
        }
      ],
      "name": "performDelegation",
      "outputs": [],
      "stateMutability": "nonpayable",
      "type": "function"
    },
    {
      "inputs": [
        {
          "internalType": "uint256",
          "name": "numTimes",
          "type": "uint256"
        },
        {
          "internalType": "string",
          "name": "validatorAddress",
          "type": "string"
        }
      ],
      "name": "run",
      "outputs": [],
      "stateMutability": "nonpayable",
      "type": "function"
    }
  ],
  "bytecode": "0x608060405260008055611316806100176000396000f3fe608060405234801561001057600080fd5b506004361061007d5760003560e01c8063641a5c381161005b578063641a5c38146100d6578063668f452b146100f2578063cbc367d414610123578063f66013d7146101535761007d565b80631a1cd520146100825780634e5a8fe51461009e57806352fce7b1146100ba575b600080fd5b61009c60048036038101906100979190610889565b61016f565b005b6100b860048036038101906100b39190610889565b610306565b005b6100d460048036038101906100cf9190610889565b6103a8565b005b6100f060048036038101906100eb9190610889565b610450565b005b61010c600480360381019061010791906108e9565b610578565b60405161011a929190610a21565b60405180910390f35b61013d60048036038101906101389190610aaf565b610612565b60405161014a9190610c9a565b60405180910390f35b61016d600480360381019061016891906108e9565b6106c2565b005b61080073ffffffffffffffffffffffffffffffffffffffff166353266bbb308484600a6040518563ffffffff1660e01b81526004016101b19493929190610d5d565b6020604051808303816000875af11580156101d0573d6000803e3d6000fd5b505050506040513d601f19601f820116820180604052508101906101f49190610dc9565b5060005b8381101561027a573073ffffffffffffffffffffffffffffffffffffffff1663f66013d784846040518363ffffffff1660e01b815260040161023b929190610df6565b600060405180830381600087803b15801561025557600080fd5b505af1925050508015610266575060015b50808061027290610e49565b9150506101f8565b5061080073ffffffffffffffffffffffffffffffffffffffff166353266bbb308484600a6040518563ffffffff1660e01b81526004016102bd9493929190610d5d565b6020604051808303816000875af11580156102dc573d6000803e3d6000fd5b505050506040513d601f19601f820116820180604052508101906103009190610dc9565b50505050565b60008081548092919061031890610e49565b919050555060005b838110156103a2573073ffffffffffffffffffffffffffffffffffffffff1663f66013d784846040518363ffffffff1660e01b8152600401610363929190610df6565b600060405180830381600087803b15801561037d57600080fd5b505af192505050801561038e575060015b50808061039a90610e49565b915050610320565b50505050565b6000808154809291906103ba90610e49565b919050555060005b8381101561044a573073ffffffffffffffffffffffffffffffffffffffff1663f66013d784846040518363ffffffff1660e01b8152600401610405929190610df6565b600060405180830381600087803b15801561041f57600080fd5b505af1158015610433573d6000803e3d6000fd5b50505050808061044290610e49565b9150506103c2565b50505050565b60008081548092919061046290610e49565b919050555060005b838110156104ec573073ffffffffffffffffffffffffffffffffffffffff1663f66013d784846040518363ffffffff1660e01b81526004016104ad929190610df6565b600060405180830381600087803b1580156104c757600080fd5b505af19250505080156104d8575060015b5080806104e490610e49565b91505061046a565b5061080073ffffffffffffffffffffffffffffffffffffffff166353266bbb308484600a6040518563ffffffff1660e01b815260040161052f9493929190610d5d565b6020604051808303816000875af115801561054e573d6000803e3d6000fd5b505050506040513d601f19601f820116820180604052508101906105729190610dc9565b50505050565b600061058261074c565b61080073ffffffffffffffffffffffffffffffffffffffff1663241774e63086866040518463ffffffff1660e01b81526004016105c193929190610e91565b600060405180830381865afa1580156105de573d6000803e3d6000fd5b505050506040513d6000823e3d601f19601f82011682018060405250810190610607919061106f565b915091509250929050565b61061a610766565b60005b838110156106bb5761080073ffffffffffffffffffffffffffffffffffffffff1663223b3b7a846040518263ffffffff1660e01b815260040161066091906110cb565b600060405180830381865afa15801561067d573d6000803e3d6000fd5b505050506040513d6000823e3d601f19601f820116820180604052508101906106a69190611297565b915080806106b390610e49565b91505061061d565b5092915050565b61080073ffffffffffffffffffffffffffffffffffffffff166353266bbb308484600a6040518563ffffffff1660e01b81526004016107049493929190610d5d565b6020604051808303816000875af1158015610723573d6000803e3d6000fd5b505050506040513d601f19601f820116820180604052508101906107479190610dc9565b600080fd5b604051806040016040528060608152602001600081525090565b60405180610160016040528060608152602001606081526020016000151581526020016000600381111561079d5761079c610b0a565b5b8152602001600081526020016000815260200160608152602001600060070b8152602001600060070b815260200160008152602001600081525090565b6000604051905090565b600080fd5b600080fd5b6000819050919050565b610801816107ee565b811461080c57600080fd5b50565b60008135905061081e816107f8565b92915050565b600080fd5b600080fd5b600080fd5b60008083601f84011261084957610848610824565b5b8235905067ffffffffffffffff81111561086657610865610829565b5b6020830191508360018202830111156108825761088161082e565b5b9250929050565b6000806000604084860312156108a2576108a16107e4565b5b60006108b08682870161080f565b935050602084013567ffffffffffffffff8111156108d1576108d06107e9565b5b6108dd86828701610833565b92509250509250925092565b60008060208385031215610900576108ff6107e4565b5b600083013567ffffffffffffffff81111561091e5761091d6107e9565b5b61092a85828601610833565b92509250509250929050565b61093f816107ee565b82525050565b600081519050919050565b600082825260208201905092915050565b60005b8381101561097f578082015181840152602081019050610964565b60008484015250505050565b6000601f19601f8301169050919050565b60006109a782610945565b6109b18185610950565b93506109c1818560208601610961565b6109ca8161098b565b840191505092915050565b6109de816107ee565b82525050565b60006040830160008301518482036000860152610a01828261099c565b9150506020830151610a1660208601826109d5565b508091505092915050565b6000604082019050610a366000830185610936565b8181036020830152610a4881846109e4565b90509392505050565b600073ffffffffffffffffffffffffffffffffffffffff82169050919050565b6000610a7c82610a51565b9050919050565b610a8c81610a71565b8114610a9757600080fd5b50565b600081359050610aa981610a83565b92915050565b60008060408385031215610ac657610ac56107e4565b5b6000610ad48582860161080f565b9250506020610ae585828601610a9a565b9150509250929050565b60008115159050919050565b610b0481610aef565b82525050565b7f4e487b7100000000000000000000000000000000000000000000000000000000600052602160045260246000fd5b60048110610b4a57610b49610b0a565b5b50565b6000819050610b5b82610b39565b919050565b6000610b6b82610b4d565b9050919050565b610b7b81610b60565b82525050565b60008160070b9050919050565b610b9781610b81565b82525050565b6000610160830160008301518482036000860152610bbb828261099c565b91505060208301518482036020860152610bd5828261099c565b9150506040830151610bea6040860182610afb565b506060830151610bfd6060860182610b72565b506080830151610c1060808601826109d5565b5060a0830151610c2360a08601826109d5565b5060c083015184820360c0860152610c3b828261099c565b91505060e0830151610c5060e0860182610b8e565b50610100830151610c65610100860182610b8e565b50610120830151610c7a6101208601826109d5565b50610140830151610c8f6101408601826109d5565b508091505092915050565b60006020820190508181036000830152610cb48184610b9d565b905092915050565b610cc581610a71565b82525050565b600082825260208201905092915050565b82818337600083830152505050565b6000610cf78385610ccb565b9350610d04838584610cdc565b610d0d8361098b565b840190509392505050565b6000819050919050565b6000819050919050565b6000610d47610d42610d3d84610d18565b610d22565b6107ee565b9050919050565b610d5781610d2c565b82525050565b6000606082019050610d726000830187610cbc565b8181036020830152610d85818587610ceb565b9050610d946040830184610d4e565b95945050505050565b610da681610aef565b8114610db157600080fd5b50565b600081519050610dc381610d9d565b92915050565b600060208284031215610ddf57610dde6107e4565b5b6000610ded84828501610db4565b91505092915050565b60006020820190508181036000830152610e11818486610ceb565b90509392505050565b7f4e487b7100000000000000000000000000000000000000000000000000000000600052601160045260246000fd5b6000610e54826107ee565b91507fffffffffffffffffffffffffffffffffffffffffffffffffffffffffffffffff8203610e8657610e85610e1a565b5b600182019050919050565b6000604082019050610ea66000830186610cbc565b8181036020830152610eb9818486610ceb565b9050949350505050565b600081519050610ed2816107f8565b92915050565b600080fd5b7f4e487b7100000000000000000000000000000000000000000000000000000000600052604160045260246000fd5b610f158261098b565b810181811067ffffffffffffffff82111715610f3457610f33610edd565b5b80604052505050565b6000610f476107da565b9050610f538282610f0c565b919050565b600080fd5b600080fd5b600067ffffffffffffffff821115610f7d57610f7c610edd565b5b610f868261098b565b9050602081019050919050565b6000610fa6610fa184610f62565b610f3d565b905082815260208101848484011115610fc257610fc1610f5d565b5b610fcd848285610961565b509392505050565b600082601f830112610fea57610fe9610824565b5b8151610ffa848260208601610f93565b91505092915050565b60006040828403121561101957611018610ed8565b5b6110236040610f3d565b9050600082015167ffffffffffffffff81111561104357611042610f58565b5b61104f84828501610fd5565b600083015250602061106384828501610ec3565b60208301525092915050565b60008060408385031215611086576110856107e4565b5b600061109485828601610ec3565b925050602083015167ffffffffffffffff8111156110b5576110b46107e9565b5b6110c185828601611003565b9150509250929050565b60006020820190506110e06000830184610cbc565b92915050565b600481106110f357600080fd5b50565b600081519050611105816110e6565b92915050565b61111481610b81565b811461111f57600080fd5b50565b6000815190506111318161110b565b92915050565b6000610160828403121561114e5761114d610ed8565b5b611159610160610f3d565b9050600082015167ffffffffffffffff81111561117957611178610f58565b5b61118584828501610fd5565b600083015250602082015167ffffffffffffffff8111156111a9576111a8610f58565b5b6111b584828501610fd5565b60208301525060406111c984828501610db4565b60408301525060606111dd848285016110f6565b60608301525060806111f184828501610ec3565b60808301525060a061120584828501610ec3565b60a08301525060c082015167ffffffffffffffff81111561122957611228610f58565b5b61123584828501610fd5565b60c08301525060e061124984828501611122565b60e08301525061010061125e84828501611122565b6101008301525061012061127484828501610ec3565b6101208301525061014061128a84828501610ec3565b6101408301525092915050565b6000602082840312156112ad576112ac6107e4565b5b600082015167ffffffffffffffff8111156112cb576112ca6107e9565b5b6112d784828501611137565b9150509291505056fea2646970667358221220650c3c18d496b9f693652a31938a169158979a241c1d4bb7be2d048a0876eff564736f6c63430008140033",
  "linkReferences": {},
  "deployedLinkReferences": {}
}