{
  "_format": "hh-sol-artifact-1",
  "contractName": "StakingReverter",
  "sourceName": "solidity/precompiles/testutil/contracts/StakingReverter.sol",
  "abi": [
    {
      "inputs": [],
      "stateMutability": "payable",
      "type": "constructor"
    },
    {
      "inputs": [
        {
          "internalType": "uint256",
          "name": "numTimes",
          "type": "uint256"
        },
        {
          "internalType": "string",
          "name": "validatorAddress",
          "type": "string"
        }
      ],
      "name": "callPrecompileAfterRevert",
      "outputs": [],
      "stateMutability": "nonpayable",
      "type": "function"
    },
    {
      "inputs": [
        {
          "internalType": "string",
          "name": "validatorAddress",
          "type": "string"
        }
      ],
      "name": "getCurrentStake",
      "outputs": [
        {
          "internalType": "uint256",
          "name": "shares",
          "type": "uint256"
        },
        {
          "components": [
            {
              "internalType": "string",
              "name": "denom",
              "type": "string"
            },
            {
              "internalType": "uint256",
              "name": "amount",
              "type": "uint256"
            }
          ],
          "internalType": "struct Coin",
          "name": "balance",
          "type": "tuple"
        }
      ],
      "stateMutability": "view",
      "type": "function"
    },
    {
      "inputs": [
        {
          "internalType": "uint256",
          "name": "numTimes",
          "type": "uint256"
        },
        {
          "internalType": "string",
          "name": "validatorAddress",
          "type": "string"
        }
      ],
      "name": "multipleDelegations",
      "outputs": [],
      "stateMutability": "nonpayable",
      "type": "function"
    },
    {
      "inputs": [
        {
          "internalType": "uint256",
          "name": "numTimes",
          "type": "uint256"
        },
        {
          "internalType": "address",
          "name": "validatorAddress",
          "type": "address"
        }
      ],
      "name": "multipleQueries",
      "outputs": [
        {
          "components": [
            {
              "internalType": "string",
              "name": "operatorAddress",
              "type": "string"
            },
            {
              "internalType": "string",
              "name": "consensusPubkey",
              "type": "string"
            },
            {
              "internalType": "bool",
              "name": "jailed",
              "type": "bool"
            },
            {
              "internalType": "enum BondStatus",
              "name": "status",
              "type": "uint8"
            },
            {
              "internalType": "uint256",
              "name": "tokens",
              "type": "uint256"
            },
            {
              "internalType": "uint256",
              "name": "delegatorShares",
              "type": "uint256"
            },
            {
              "internalType": "string",
              "name": "description",
              "type": "string"
            },
            {
              "internalType": "int64",
              "name": "unbondingHeight",
              "type": "int64"
            },
            {
              "internalType": "int64",
              "name": "unbondingTime",
              "type": "int64"
            },
            {
              "internalType": "uint256",
              "name": "commission",
              "type": "uint256"
            },
            {
              "internalType": "uint256",
              "name": "minSelfDelegation",
              "type": "uint256"
            }
          ],
          "internalType": "struct Validator",
          "name": "validator",
          "type": "tuple"
        }
      ],
      "stateMutability": "view",
      "type": "function"
    },
    {
      "inputs": [
        {
          "internalType": "string",
          "name": "validatorAddress",
          "type": "string"
        }
      ],
      "name": "performDelegation",
      "outputs": [],
      "stateMutability": "nonpayable",
      "type": "function"
    },
    {
      "inputs": [
        {
          "internalType": "uint256",
          "name": "numTimes",
          "type": "uint256"
        },
        {
          "internalType": "string",
          "name": "validatorAddress",
          "type": "string"
        }
      ],
      "name": "run",
      "outputs": [],
      "stateMutability": "nonpayable",
      "type": "function"
    }
  ],
  "bytecode": "0x608060405260008055611148806100176000396000f3fe608060405234801561001057600080fd5b50600436106100625760003560e01c80634e5a8fe51461006757806352fce7b114610083578063641a5c381461009f578063668f452b146100bb578063cbc367d4146100ec578063f66013d71461011c575b600080fd5b610081600480360381019061007c91906106bb565b610138565b005b61009d600480360381019061009891906106bb565b6101da565b005b6100b960048036038101906100b491906106bb565b610282565b005b6100d560048036038101906100d0919061071b565b6103aa565b6040516100e3929190610853565b60405180910390f35b610106600480360381019061010191906108e1565b610444565b6040516101139190610acc565b60405180910390f35b6101366004803603810190610131919061071b565b6104f4565b005b60008081548092919061014a90610b1d565b919050555060005b838110156101d4573073ffffffffffffffffffffffffffffffffffffffff1663f66013d784846040518363ffffffff1660e01b8152600401610195929190610bb2565b600060405180830381600087803b1580156101af57600080fd5b505af19250505080156101c0575060015b5080806101cc90610b1d565b915050610152565b50505050565b6000808154809291906101ec90610b1d565b919050555060005b8381101561027c573073ffffffffffffffffffffffffffffffffffffffff1663f66013d784846040518363ffffffff1660e01b8152600401610237929190610bb2565b600060405180830381600087803b15801561025157600080fd5b505af1158015610265573d6000803e3d6000fd5b50505050808061027490610b1d565b9150506101f4565b50505050565b60008081548092919061029490610b1d565b919050555060005b8381101561031e573073ffffffffffffffffffffffffffffffffffffffff1663f66013d784846040518363ffffffff1660e01b81526004016102df929190610bb2565b600060405180830381600087803b1580156102f957600080fd5b505af192505050801561030a575060015b50808061031690610b1d565b91505061029c565b5061080073ffffffffffffffffffffffffffffffffffffffff166353266bbb308484600a6040518563ffffffff1660e01b81526004016103619493929190610c2a565b6020604051808303816000875af1158015610380573d6000803e3d6000fd5b505050506040513d601f19601f820116820180604052508101906103a49190610c96565b50505050565b60006103b461057e565b61080073ffffffffffffffffffffffffffffffffffffffff1663241774e63086866040518463ffffffff1660e01b81526004016103f393929190610cc3565b600060405180830381865afa158015610410573d6000803e3d6000fd5b505050506040513d6000823e3d601f19601f820116820180604052508101906104399190610ea1565b915091509250929050565b61044c610598565b60005b838110156104ed5761080073ffffffffffffffffffffffffffffffffffffffff1663223b3b7a846040518263ffffffff1660e01b81526004016104929190610efd565b600060405180830381865afa1580156104af573d6000803e3d6000fd5b505050506040513d6000823e3d601f19601f820116820180604052508101906104d891906110c9565b915080806104e590610b1d565b91505061044f565b5092915050565b61080073ffffffffffffffffffffffffffffffffffffffff166353266bbb308484600a6040518563ffffffff1660e01b81526004016105369493929190610c2a565b6020604051808303816000875af1158015610555573d6000803e3d6000fd5b505050506040513d601f19601f820116820180604052508101906105799190610c96565b600080fd5b604051806040016040528060608152602001600081525090565b6040518061016001604052806060815260200160608152602001600015158152602001600060038111156105cf576105ce61093c565b5b8152602001600081526020016000815260200160608152602001600060070b8152602001600060070b815260200160008152602001600081525090565b6000604051905090565b600080fd5b600080fd5b6000819050919050565b61063381610620565b811461063e57600080fd5b50565b6000813590506106508161062a565b92915050565b600080fd5b600080fd5b600080fd5b60008083601f84011261067b5761067a610656565b5b8235905067ffffffffffffffff8111156106985761069761065b565b5b6020830191508360018202830111156106b4576106b3610660565b5b9250929050565b6000806000604084860312156106d4576106d3610616565b5b60006106e286828701610641565b935050602084013567ffffffffffffffff8111156107035761070261061b565b5b61070f86828701610665565b92509250509250925092565b6000806020838503121561073257610731610616565b5b600083013567ffffffffffffffff8111156107505761074f61061b565b5b61075c85828601610665565b92509250509250929050565b61077181610620565b82525050565b600081519050919050565b600082825260208201905092915050565b60005b838110156107b1578082015181840152602081019050610796565b60008484015250505050565b6000601f19601f8301169050919050565b60006107d982610777565b6107e38185610782565b93506107f3818560208601610793565b6107fc816107bd565b840191505092915050565b61081081610620565b82525050565b6000604083016000830151848203600086015261083382826107ce565b91505060208301516108486020860182610807565b508091505092915050565b60006040820190506108686000830185610768565b818103602083015261087a8184610816565b90509392505050565b600073ffffffffffffffffffffffffffffffffffffffff82169050919050565b60006108ae82610883565b9050919050565b6108be816108a3565b81146108c957600080fd5b50565b6000813590506108db816108b5565b92915050565b600080604083850312156108f8576108f7610616565b5b600061090685828601610641565b9250506020610917858286016108cc565b9150509250929050565b60008115159050919050565b61093681610921565b82525050565b7f4e487b7100000000000000000000000000000000000000000000000000000000600052602160045260246000fd5b6004811061097c5761097b61093c565b5b50565b600081905061098d8261096b565b919050565b600061099d8261097f565b9050919050565b6109ad81610992565b82525050565b60008160070b9050919050565b6109c9816109b3565b82525050565b60006101608301600083015184820360008601526109ed82826107ce565b91505060208301518482036020860152610a0782826107ce565b9150506040830151610a1c604086018261092d565b506060830151610a2f60608601826109a4565b506080830151610a426080860182610807565b5060a0830151610a5560a0860182610807565b5060c083015184820360c0860152610a6d82826107ce565b91505060e0830151610a8260e08601826109c0565b50610100830151610a976101008601826109c0565b50610120830151610aac610120860182610807565b50610140830151610ac1610140860182610807565b508091505092915050565b60006020820190508181036000830152610ae681846109cf565b905092915050565b7f4e487b7100000000000000000000000000000000000000000000000000000000600052601160045260246000fd5b6000610b2882610620565b91507fffffffffffffffffffffffffffffffffffffffffffffffffffffffffffffffff8203610b5a57610b59610aee565b5b600182019050919050565b600082825260208201905092915050565b82818337600083830152505050565b6000610b918385610b65565b9350610b9e838584610b76565b610ba7836107bd565b840190509392505050565b60006020820190508181036000830152610bcd818486610b85565b90509392505050565b610bdf816108a3565b82525050565b6000819050919050565b6000819050919050565b6000610c14610c0f610c0a84610be5565b610bef565b610620565b9050919050565b610c2481610bf9565b82525050565b6000606082019050610c3f6000830187610bd6565b8181036020830152610c52818587610b85565b9050610c616040830184610c1b565b95945050505050565b610c7381610921565b8114610c7e57600080fd5b50565b600081519050610c9081610c6a565b92915050565b600060208284031215610cac57610cab610616565b5b6000610cba84828501610c81565b91505092915050565b6000604082019050610cd86000830186610bd6565b8181036020830152610ceb818486610b85565b9050949350505050565b600081519050610d048161062a565b92915050565b600080fd5b7f4e487b7100000000000000000000000000000000000000000000000000000000600052604160045260246000fd5b610d47826107bd565b810181811067ffffffffffffffff82111715610d6657610d65610d0f565b5b80604052505050565b6000610d7961060c565b9050610d858282610d3e565b919050565b600080fd5b600080fd5b600067ffffffffffffffff821115610daf57610dae610d0f565b5b610db8826107bd565b9050602081019050919050565b6000610dd8610dd384610d94565b610d6f565b905082815260208101848484011115610df457610df3610d8f565b5b610dff848285610793565b509392505050565b600082601f830112610e1c57610e1b610656565b5b8151610e2c848260208601610dc5565b91505092915050565b600060408284031215610e4b57610e4a610d0a565b5b610e556040610d6f565b9050600082015167ffffffffffffffff811115610e7557610e74610d8a565b5b610e8184828501610e07565b6000830152506020610e9584828501610cf5565b60208301525092915050565b60008060408385031215610eb857610eb7610616565b5b6000610ec685828601610cf5565b925050602083015167ffffffffffffffff811115610ee757610ee661061b565b5b610ef385828601610e35565b9150509250929050565b6000602082019050610f126000830184610bd6565b92915050565b60048110610f2557600080fd5b50565b600081519050610f3781610f18565b92915050565b610f46816109b3565b8114610f5157600080fd5b50565b600081519050610f6381610f3d565b92915050565b60006101608284031215610f8057610f7f610d0a565b5b610f8b610160610d6f565b9050600082015167ffffffffffffffff811115610fab57610faa610d8a565b5b610fb784828501610e07565b600083015250602082015167ffffffffffffffff811115610fdb57610fda610d8a565b5b610fe784828501610e07565b6020830152506040610ffb84828501610c81565b604083015250606061100f84828501610f28565b606083015250608061102384828501610cf5565b60808301525060a061103784828501610cf5565b60a08301525060c082015167ffffffffffffffff81111561105b5761105a610d8a565b5b61106784828501610e07565b60c08301525060e061107b84828501610f54565b60e08301525061010061109084828501610f54565b610100830152506101206110a684828501610cf5565b610120830152506101406110bc84828501610cf5565b6101408301525092915050565b6000602082840312156110df576110de610616565b5b600082015167ffffffffffffffff8111156110fd576110fc61061b565b5b61110984828501610f69565b9150509291505056fea2646970667358221220a2560937df2753a3d3df33261d2b420fbae8097aeec17a93d52806027bde15a464736f6c63430008140033",
  "linkReferences": {},
  "deployedLinkReferences": {}
}